{
  "contractName": "ExerciseC6D",
  "abi": [
    {
      "inputs": [],
      "stateMutability": "nonpayable",
      "type": "constructor"
    },
    {
      "anonymous": false,
      "inputs": [
        {
          "indexed": false,
          "internalType": "string",
          "name": "flight",
          "type": "string"
        },
        {
          "indexed": false,
          "internalType": "uint256",
          "name": "timestamp",
          "type": "uint256"
        },
        {
          "indexed": false,
          "internalType": "uint8",
          "name": "status",
          "type": "uint8"
        },
        {
          "indexed": false,
          "internalType": "bool",
          "name": "verified",
          "type": "bool"
        }
      ],
      "name": "FlightStatusInfo",
      "type": "event"
    },
    {
      "anonymous": false,
      "inputs": [
        {
          "indexed": false,
          "internalType": "uint8",
          "name": "index",
          "type": "uint8"
        },
        {
          "indexed": false,
          "internalType": "string",
          "name": "flight",
          "type": "string"
        },
        {
          "indexed": false,
          "internalType": "uint256",
          "name": "timestamp",
          "type": "uint256"
        }
      ],
      "name": "OracleRequest",
      "type": "event"
    },
    {
      "inputs": [],
      "name": "REGISTRATION_FEE",
      "outputs": [
        {
          "internalType": "uint256",
          "name": "",
          "type": "uint256"
        }
      ],
      "stateMutability": "view",
      "type": "function"
    },
    {
      "inputs": [],
      "name": "registerOracle",
      "outputs": [],
      "stateMutability": "payable",
      "type": "function"
    },
    {
      "inputs": [
        {
          "internalType": "address",
          "name": "account",
          "type": "address"
        }
      ],
      "name": "getOracle",
      "outputs": [
        {
          "internalType": "uint8[3]",
          "name": "",
          "type": "uint8[3]"
        }
      ],
      "stateMutability": "view",
      "type": "function"
    },
    {
      "inputs": [
        {
          "internalType": "string",
          "name": "flight",
          "type": "string"
        },
        {
          "internalType": "uint256",
          "name": "timestamp",
          "type": "uint256"
        }
      ],
      "name": "fetchFlightStatus",
      "outputs": [],
      "stateMutability": "nonpayable",
      "type": "function"
    },
    {
      "inputs": [
        {
          "internalType": "uint8",
          "name": "index",
          "type": "uint8"
        },
        {
          "internalType": "string",
          "name": "flight",
          "type": "string"
        },
        {
          "internalType": "uint256",
          "name": "timestamp",
          "type": "uint256"
        },
        {
          "internalType": "uint8",
          "name": "statusId",
          "type": "uint8"
        }
      ],
      "name": "submitOracleResponse",
      "outputs": [],
      "stateMutability": "nonpayable",
      "type": "function"
    }
  ],
  "bytecode": "0x608060405260008060146101000a81548160ff021916908360ff16021790555034801561002b57600080fd5b50336000806101000a81548173ffffffffffffffffffffffffffffffffffffffff021916908373ffffffffffffffffffffffffffffffffffffffff1602179055506115f18061007b6000396000f3fe60806040526004361061004a5760003560e01c806310d3d22e1461004f578063339d25901461008c57806364b4f751146100965780637b91ce38146100c15780638ec0268b146100ea575b600080fd5b34801561005b57600080fd5b5061007660048036038101906100719190610c23565b610113565b6040516100839190610d08565b60405180910390f35b610094610251565b005b3480156100a257600080fd5b506100ab6102fb565b6040516100b89190610d3c565b60405180910390f35b3480156100cd57600080fd5b506100e860048036038101906100e39190610ec9565b610307565b005b3480156100f657600080fd5b50610111600480360381019061010c9190610f51565b610408565b005b61011b610ad8565b60008054906101000a900473ffffffffffffffffffffffffffffffffffffffff1673ffffffffffffffffffffffffffffffffffffffff163373ffffffffffffffffffffffffffffffffffffffff16146101a9576040517f08c379a00000000000000000000000000000000000000000000000000000000081526004016101a090611031565b60405180910390fd5b600160008373ffffffffffffffffffffffffffffffffffffffff1673ffffffffffffffffffffffffffffffffffffffff168152602001908152602001600020600380602002604051908101604052809291908260038015610245576020028201916000905b82829054906101000a900460ff1660ff168152602001906001019060208260000104928301926001038202915080841161020e5790505b50505050509050919050565b670de0b6b3a764000034101561029c576040517f08c379a00000000000000000000000000000000000000000000000000000000081526004016102939061109d565b60405180910390fd5b60006102a733610826565b905080600160003373ffffffffffffffffffffffffffffffffffffffff1673ffffffffffffffffffffffffffffffffffffffff1681526020019081526020016000209060036102f7929190610afa565b5050565b670de0b6b3a764000081565b600061031233610a0d565b9050600081848460405160200161032b9392919061118e565b604051602081830303815290604052805190602001209050336002600083815260200190815260200160002060000160006101000a81548173ffffffffffffffffffffffffffffffffffffffff021916908373ffffffffffffffffffffffffffffffffffffffff16021790555060016002600083815260200190815260200160002060000160146101000a81548160ff0219169083151502179055507f33cc1dc817476a865477242f5d168e635bcd483a67e12e1ebde698e1a9ec023a8285856040516103fa9392919061120f565b60405180910390a150505050565b8360ff16600160003373ffffffffffffffffffffffffffffffffffffffff1673ffffffffffffffffffffffffffffffffffffffff16815260200190815260200160002060006003811061045e5761045d61124d565b5b602091828204019190069054906101000a900460ff1660ff1614806104ef57508360ff16600160003373ffffffffffffffffffffffffffffffffffffffff1673ffffffffffffffffffffffffffffffffffffffff1681526020019081526020016000206001600381106104d4576104d361124d565b5b602091828204019190069054906101000a900460ff1660ff16145b8061056657508360ff16600160003373ffffffffffffffffffffffffffffffffffffffff1673ffffffffffffffffffffffffffffffffffffffff16815260200190815260200160002060026003811061054b5761054a61124d565b5b602091828204019190069054906101000a900460ff1660ff16145b6105a5576040517f08c379a000000000000000000000000000000000000000000000000000000000815260040161059c906112ee565b60405180910390fd5b60008484846040516020016105bc9392919061118e565b6040516020818303038152906040528051906020012090506002600082815260200190815260200160002060000160149054906101000a900460ff16610637576040517f08c379a000000000000000000000000000000000000000000000000000000000815260040161062e90611380565b60405180910390fd5b6002600082815260200190815260200160002060010160008360ff1660ff168152602001908152602001600020339080600181540180825580915050600190039060005260206000200160009091909190916101000a81548173ffffffffffffffffffffffffffffffffffffffff021916908373ffffffffffffffffffffffffffffffffffffffff16021790555060036002600083815260200190815260200160002060010160008460ff1660ff16815260200190815260200160002080549050106107e0577f2f1c265a6c6abb151887cacc1fd693a4c8dc417f3f955372b3632cdbc5ed7a41848484600160405161073394939291906113bb565b60405180910390a160008484604051602001610750929190611407565b60405160208183030381529060405280519060200120905060405180604001604052806001151581526020018460ff168152506003600083815260200190815260200160002060008201518160000160006101000a81548160ff02191690831515021790555060208201518160000160016101000a81548160ff021916908360ff1602179055509050505061081f565b7f2f1c265a6c6abb151887cacc1fd693a4c8dc417f3f955372b3632cdbc5ed7a41848484600060405161081694939291906113bb565b60405180910390a15b5050505050565b61082e610ad8565b610836610ad8565b61083f83610a0d565b816000600381106108535761085261124d565b5b602002019060ff16908160ff1681525050806000600381106108785761087761124d565b5b6020020151816001600381106108915761089061124d565b5b602002019060ff16908160ff16815250505b806000600381106108b7576108b661124d565b5b602002015160ff16816001600381106108d3576108d261124d565b5b602002015160ff161415610914576108ea83610a0d565b816001600381106108fe576108fd61124d565b5b602002019060ff16908160ff16815250506108a3565b806001600381106109285761092761124d565b5b6020020151816002600381106109415761094061124d565b5b602002019060ff16908160ff16815250505b806000600381106109675761096661124d565b5b602002015160ff16816002600381106109835761098261124d565b5b602002015160ff1614806109cc5750806001600381106109a6576109a561124d565b5b602002015160ff16816002600381106109c2576109c161124d565b5b602002015160ff16145b15610a04576109da83610a0d565b816002600381106109ee576109ed61124d565b5b602002019060ff16908160ff1681525050610953565b80915050919050565b600080600a905060008160ff166000601481819054906101000a900460ff1680929190610a399061145e565b91906101000a81548160ff021916908360ff16021790555060ff1643610a5f9190611488565b4085604051602001610a7292919061152f565b6040516020818303038152906040528051906020012060001c610a95919061158a565b905060fa600060149054906101000a900460ff1660ff161115610ace5760008060146101000a81548160ff021916908360ff1602179055505b8092505050919050565b6040518060600160405280600390602082028036833780820191505090505090565b826003601f01602090048101928215610b835791602002820160005b83821115610b5457835183826101000a81548160ff021916908360ff1602179055509260200192600101602081600001049283019260010302610b16565b8015610b815782816101000a81549060ff0219169055600101602081600001049283019260010302610b54565b505b509050610b909190610b94565b5090565b5b80821115610bad576000816000905550600101610b95565b5090565b6000604051905090565b600080fd5b600080fd5b600073ffffffffffffffffffffffffffffffffffffffff82169050919050565b6000610bf082610bc5565b9050919050565b610c0081610be5565b8114610c0b57600080fd5b50565b600081359050610c1d81610bf7565b92915050565b600060208284031215610c3957610c38610bbb565b5b6000610c4784828501610c0e565b91505092915050565b600060039050919050565b600081905092915050565b6000819050919050565b600060ff82169050919050565b610c8681610c70565b82525050565b6000610c988383610c7d565b60208301905092915050565b6000602082019050919050565b610cba81610c50565b610cc48184610c5b565b9250610ccf82610c66565b8060005b83811015610d00578151610ce78782610c8c565b9650610cf283610ca4565b925050600181019050610cd3565b505050505050565b6000606082019050610d1d6000830184610cb1565b92915050565b6000819050919050565b610d3681610d23565b82525050565b6000602082019050610d516000830184610d2d565b92915050565b600080fd5b600080fd5b6000601f19601f8301169050919050565b7f4e487b7100000000000000000000000000000000000000000000000000000000600052604160045260246000fd5b610daa82610d61565b810181811067ffffffffffffffff82111715610dc957610dc8610d72565b5b80604052505050565b6000610ddc610bb1565b9050610de88282610da1565b919050565b600067ffffffffffffffff821115610e0857610e07610d72565b5b610e1182610d61565b9050602081019050919050565b82818337600083830152505050565b6000610e40610e3b84610ded565b610dd2565b905082815260208101848484011115610e5c57610e5b610d5c565b5b610e67848285610e1e565b509392505050565b600082601f830112610e8457610e83610d57565b5b8135610e94848260208601610e2d565b91505092915050565b610ea681610d23565b8114610eb157600080fd5b50565b600081359050610ec381610e9d565b92915050565b60008060408385031215610ee057610edf610bbb565b5b600083013567ffffffffffffffff811115610efe57610efd610bc0565b5b610f0a85828601610e6f565b9250506020610f1b85828601610eb4565b9150509250929050565b610f2e81610c70565b8114610f3957600080fd5b50565b600081359050610f4b81610f25565b92915050565b60008060008060808587031215610f6b57610f6a610bbb565b5b6000610f7987828801610f3c565b945050602085013567ffffffffffffffff811115610f9a57610f99610bc0565b5b610fa687828801610e6f565b9350506040610fb787828801610eb4565b9250506060610fc887828801610f3c565b91505092959194509250565b600082825260208201905092915050565b7f43616c6c6572206973206e6f7420636f6e7472616374206f776e657200000000600082015250565b600061101b601c83610fd4565b915061102682610fe5565b602082019050919050565b6000602082019050818103600083015261104a8161100e565b9050919050565b7f526567697374726174696f6e2066656520697320726571756972656400000000600082015250565b6000611087601c83610fd4565b915061109282611051565b602082019050919050565b600060208201905081810360008301526110b68161107a565b9050919050565b60008160f81b9050919050565b60006110d5826110bd565b9050919050565b6110ed6110e882610c70565b6110ca565b82525050565b600081519050919050565b600081905092915050565b60005b8381101561112757808201518184015260208101905061110c565b83811115611136576000848401525b50505050565b6000611147826110f3565b61115181856110fe565b9350611161818560208601611109565b80840191505092915050565b6000819050919050565b61118861118382610d23565b61116d565b82525050565b600061119a82866110dc565b6001820191506111aa828561113c565b91506111b68284611177565b602082019150819050949350505050565b6111d081610c70565b82525050565b60006111e1826110f3565b6111eb8185610fd4565b93506111fb818560208601611109565b61120481610d61565b840191505092915050565b600060608201905061122460008301866111c7565b818103602083015261123681856111d6565b90506112456040830184610d2d565b949350505050565b7f4e487b7100000000000000000000000000000000000000000000000000000000600052603260045260246000fd5b7f496e64657820646f6573206e6f74206d61746368206f7261636c65207265717560008201527f6573740000000000000000000000000000000000000000000000000000000000602082015250565b60006112d8602383610fd4565b91506112e38261127c565b604082019050919050565b60006020820190508181036000830152611307816112cb565b9050919050565b7f466c69676874206f722074696d657374616d7020646f206e6f74206d6174636860008201527f206f7261636c6520726571756573740000000000000000000000000000000000602082015250565b600061136a602f83610fd4565b91506113758261130e565b604082019050919050565b600060208201905081810360008301526113998161135d565b9050919050565b60008115159050919050565b6113b5816113a0565b82525050565b600060808201905081810360008301526113d581876111d6565b90506113e46020830186610d2d565b6113f160408301856111c7565b6113fe60608301846113ac565b95945050505050565b6000611413828561113c565b915061141f8284611177565b6020820191508190509392505050565b7f4e487b7100000000000000000000000000000000000000000000000000000000600052601160045260246000fd5b600061146982610c70565b915060ff82141561147d5761147c61142f565b5b600182019050919050565b600061149382610d23565b915061149e83610d23565b9250828210156114b1576114b061142f565b5b828203905092915050565b6000819050919050565b6000819050919050565b6114e16114dc826114bc565b6114c6565b82525050565b60008160601b9050919050565b60006114ff826114e7565b9050919050565b6000611511826114f4565b9050919050565b61152961152482610be5565b611506565b82525050565b600061153b82856114d0565b60208201915061154b8284611518565b6014820191508190509392505050565b7f4e487b7100000000000000000000000000000000000000000000000000000000600052601260045260246000fd5b600061159582610d23565b91506115a083610d23565b9250826115b0576115af61155b565b5b82820690509291505056fea2646970667358221220bb04b748cc3b115f3e10dd301c83799077233c21b195fd152ad310749dea061f64736f6c634300080a0033",
  "immutableReferences": {},
  "source": "// SPDX-License-Identifier: MIT\npragma solidity >=0.4.22 <0.9.0;\n\nimport \"@openzeppelin/contracts/utils/math/SafeMath.sol\";\n\ncontract ExerciseC6D {\n\n    // Account used to deploy contract\n    address private contractOwner;\n\n    \n    // Allow SafeMath functions to be called for all uint256 types (similar to \"prototype\" in Javascript)\n    using SafeMath for uint256;\n\n    // Incremented to add pseudo-randomness at various points\n    uint8 private nonce = 0;    \n\n    // Fee to be paid when registering oracle\n    uint256 public constant REGISTRATION_FEE = 1 ether;\n\n    // Number of oracles that must respond for valid status (Threshold)\n    uint256 private constant MIN_RESPONSES = 3;\n\n    // Status codes returned by oracles\n    uint8 private constant ON_TIME = 10;\n    uint8 private constant NOT_ON_TIME = 99;\n\n    // Track all registered oracles\n    mapping(address => uint8[3]) private oracles;\n\n    // Model for responses from oracles\n    struct ResponseInfo {\n        address requester;                              // Account that requested status\n        bool isOpen;                                    // If open, oracle responses are accepted\n        mapping(uint8 => address[]) responses;          // Mapping key is the status code reported\n                                                        // This lets us group responses and identify\n                                                        // the response that majority of the oracles\n                                                        // submit\n    }\n\n    // Track all oracle responses\n    // Key = hash(index, flight, timestamp)\n    mapping(bytes32 => ResponseInfo) private oracleResponses;\n\n    // Event fired each time an oracle submits a response\n    event FlightStatusInfo(string flight, uint256 timestamp, uint8 status, bool verified);\n\n    // Event fired when flight status request is submitted\n    // Oracles track this and if they have a matching index\n    // they fetch data and submit a response\n    event OracleRequest(uint8 index, string flight, uint256 timestamp);\n\n    // Flight data persisted forever\n    struct FlightStatus {\n        bool hasStatus;\n        uint8 status;        \n    }\n\n    mapping(bytes32 => FlightStatus) flights;\n\n    constructor\n                (\n                )\n                public \n    {\n        contractOwner = msg.sender;\n    }\n\n    /********************************************************************************************/\n    /*                                       FUNCTION MODIFIERS                                 */\n    /********************************************************************************************/\n\n    modifier requireContractOwner()\n    {\n        require(msg.sender == contractOwner, \"Caller is not contract owner\");\n        _;\n    }\n\n\n    /********************************************************************************************/\n    /*                                     SMART CONTRACT FUNCTIONS                             */\n    /********************************************************************************************/\n\n    // STAGE ONE: ORACLES REGISTER WITH THE SMART CONTRACT\n\n    // Register an oracle with the contract\n    function registerOracle\n                            (\n                            )\n                            external\n                            payable\n    {\n        // CODE EXERCISE 1: Require registration fee\n        require(msg.value >= REGISTRATION_FEE, \"Registration fee is required\");\n\n        // CODE EXERCISE 1: Generate three random indexes (range 0-9) using generateIndexes for the calling oracle\n        uint8[3] memory indexes = generateIndexes(msg.sender);\n\n        // CODE EXERCISE 1: Assign the indexes to the oracle and save to the contract state\n        oracles[msg.sender] = indexes;\n    }\n\n    function getOracle\n                        (\n                            address account\n                        )\n                        external\n                        view\n                        requireContractOwner\n                        returns(uint8[3] memory)\n    {\n        return oracles[account];\n    }\n\n    // Generate a request\n    function fetchFlightStatus\n                        (\n                            string memory flight,\n                            uint256 timestamp                            \n                        )\n                        external\n    {\n        // Generate a number between 0 - 9 to determine which oracles may respond\n\n        // CODE EXERCISE 2: Replace the hard-coded value of index with a random index based on the calling account\n        uint8 index = getRandomIndex(msg.sender); \n\n\n        // Generate a unique key for storing the request\n        bytes32 key = keccak256(abi.encodePacked(index, flight, timestamp));\n\n        oracleResponses[key].requester = msg.sender;\n        oracleResponses[key].isOpen = true;\n\n\n        // CODE EXERCISE 2: Notify oracles that match the index value that they need to fetch flight status\n        emit OracleRequest(index, flight, timestamp);\n    }\n\n   \n    /*********************************** BEGIN: Oracle Callback ***********************************/\n\n\n    // STAGE THREE: ORACLES SUBMIT INFORMATION\n\n    // Called by oracle when a response is available to an outstanding request\n    // For the response to be accepted, there must be a pending request that is open\n    // and matches one of the three Indexes randomly assigned to the oracle at the\n    // time of registration (i.e. uninvited oracles are not welcome)\n    function submitOracleResponse\n                        (\n                            uint8 index,\n                            string memory flight,\n                            uint256 timestamp,\n                            uint8 statusId\n                        )\n                        external\n    {\n        require((oracles[msg.sender][0] == index) || (oracles[msg.sender][1] == index) || (oracles[msg.sender][2] == index), \"Index does not match oracle request\");\n\n\n        // CODE EXERCISE 3: Require that the response is being submitted for a request that is still open\n        bytes32 key = keccak256(abi.encodePacked(index, flight, timestamp));\n\n        require(oracleResponses[key].isOpen, \"Flight or timestamp do not match oracle request\");\n\n\n        oracleResponses[key].responses[statusId].push(msg.sender);\n\n        // Information isn't considered verified until at least MIN_RESPONSES\n        // oracles respond with the *** same *** information\n        if (oracleResponses[key].responses[statusId].length >= MIN_RESPONSES) {\n\n            // CODE EXERCISE 3: Prevent any more responses since MIN_RESPONSE threshold has been reached\n            /* Enter code here */\n\n            // CODE EXERCISE 3: Announce to the world that verified flight status information is available\n            emit FlightStatusInfo(flight, timestamp, statusId, true);\n\n            // Save the flight information for posterity\n            bytes32 flightKey = keccak256(abi.encodePacked(flight, timestamp));\n            flights[flightKey] = FlightStatus(true, statusId);\n        } else {\n            // Oracle submitting response but MIN_RESPONSES threshold not yet reached\n\n            // CODE EXERCISE 3: Announce to the world that verified flight status information is available\n            emit FlightStatusInfo(flight, timestamp, statusId, false);\n        }\n    }\n\n    /************************************ END: Oracle Callback ************************************/\n\n    // Returns array of three non-duplicating integers from 0-9\n    function generateIndexes\n                            (                       \n                                address account         \n                            )\n                            internal\n                            returns(uint8[3] memory)\n    {\n        uint8[3] memory indexes;\n        indexes[0] = getRandomIndex(account);\n        \n        indexes[1] = indexes[0];\n        while(indexes[1] == indexes[0]) {\n            indexes[1] = getRandomIndex(account);\n        }\n\n        indexes[2] = indexes[1];\n        while((indexes[2] == indexes[0]) || (indexes[2] == indexes[1])) {\n            indexes[2] = getRandomIndex(account);\n        }\n\n        return indexes;\n    }\n\n    // Returns array of three non-duplicating integers from 0-9\n    function getRandomIndex\n                            (\n                                address account\n                            )\n                            internal\n                            returns (uint8)\n    {\n        uint8 maxValue = 10;\n\n        // Pseudo random number...the incrementing nonce adds variation\n        uint8 random = uint8(uint256(keccak256(abi.encodePacked(blockhash(block.number - nonce++), account))) % maxValue);\n\n        if (nonce > 250) {\n            nonce = 0;  // Can only fetch blockhashes for last 256 blocks so we adapt\n        }\n\n        return random;\n    }\n\n}",
  "sourcePath": "/Users/juani/code/courses/udacity_blockchain_developer/04_dapp_aut_oracles/oracles-example/contracts/ExerciseC6D.sol",
  "compiler": {
    "name": "solc",
    "version": "0.8.10+commit.fc410830.Emscripten.clang"
  },
  "schemaVersion": "3.4.3",
  "updatedAt": "2023-02-23T20:43:22.799Z",
  "devdoc": {
    "kind": "dev",
    "methods": {},
    "version": 1
  },
  "userdoc": {
    "kind": "user",
    "methods": {},
    "version": 1
  }
}